{
  "contractName": "ZAuction",
  "abi": [
    {
      "inputs": [
        {
          "internalType": "contract IERC20",
          "name": "tokenAddress",
          "type": "address"
        },
        {
          "internalType": "contract IRegistrar",
          "name": "registrarAddress",
          "type": "address"
        }
      ],
      "stateMutability": "nonpayable",
      "type": "constructor"
    },
    {
      "anonymous": false,
      "inputs": [
        {
          "indexed": false,
          "internalType": "uint256",
          "name": "auctionid",
          "type": "uint256"
        },
        {
          "indexed": true,
          "internalType": "address",
          "name": "bidder",
          "type": "address"
        },
        {
          "indexed": true,
          "internalType": "address",
          "name": "seller",
          "type": "address"
        },
        {
          "indexed": false,
          "internalType": "uint256",
          "name": "amount",
          "type": "uint256"
        },
        {
          "indexed": false,
          "internalType": "address",
          "name": "nftaddress",
          "type": "address"
        },
        {
          "indexed": false,
          "internalType": "uint256",
          "name": "tokenid",
          "type": "uint256"
        },
        {
          "indexed": false,
          "internalType": "uint256",
          "name": "expireblock",
          "type": "uint256"
        }
      ],
      "name": "BidAccepted",
      "type": "event"
    },
    {
      "anonymous": false,
      "inputs": [
        {
          "indexed": true,
          "internalType": "address",
          "name": "bidder",
          "type": "address"
        },
        {
          "indexed": true,
          "internalType": "uint256",
          "name": "auctionid",
          "type": "uint256"
        },
        {
          "indexed": false,
          "internalType": "uint256",
          "name": "price",
          "type": "uint256"
        }
      ],
      "name": "Cancelled",
      "type": "event"
    },
    {
      "inputs": [
        {
          "internalType": "address",
          "name": "",
          "type": "address"
        },
        {
          "internalType": "uint256",
          "name": "",
          "type": "uint256"
        }
      ],
      "name": "consumed",
      "outputs": [
        {
          "internalType": "bool",
          "name": "",
          "type": "bool"
        }
      ],
      "stateMutability": "view",
      "type": "function",
      "constant": true
    },
    {
      "inputs": [],
      "name": "registrar",
      "outputs": [
        {
          "internalType": "contract IRegistrar",
          "name": "",
          "type": "address"
        }
      ],
      "stateMutability": "view",
      "type": "function",
      "constant": true
    },
    {
      "inputs": [],
      "name": "token",
      "outputs": [
        {
          "internalType": "contract IERC20",
          "name": "",
          "type": "address"
        }
      ],
      "stateMutability": "view",
      "type": "function",
      "constant": true
    },
    {
      "inputs": [
        {
          "internalType": "bytes",
          "name": "signature",
          "type": "bytes"
        },
        {
          "internalType": "uint256",
          "name": "auctionid",
          "type": "uint256"
        },
        {
          "internalType": "address",
          "name": "bidder",
          "type": "address"
        },
        {
          "internalType": "uint256",
          "name": "bid",
          "type": "uint256"
        },
        {
          "internalType": "address",
          "name": "nftaddress",
          "type": "address"
        },
        {
          "internalType": "uint256",
          "name": "tokenid",
          "type": "uint256"
        },
        {
          "internalType": "uint256",
          "name": "minbid",
          "type": "uint256"
        },
        {
          "internalType": "uint256",
          "name": "startblock",
          "type": "uint256"
        },
        {
          "internalType": "uint256",
          "name": "expireblock",
          "type": "uint256"
        }
      ],
      "name": "acceptBid",
      "outputs": [],
      "stateMutability": "nonpayable",
      "type": "function"
    },
    {
      "inputs": [
        {
          "internalType": "uint256",
          "name": "auctionid",
          "type": "uint256"
        },
        {
          "internalType": "uint256",
          "name": "bid",
          "type": "uint256"
        },
        {
          "internalType": "address",
          "name": "nftaddress",
          "type": "address"
        },
        {
          "internalType": "uint256",
          "name": "tokenid",
          "type": "uint256"
        },
        {
          "internalType": "uint256",
          "name": "minbid",
          "type": "uint256"
        },
        {
          "internalType": "uint256",
          "name": "startblock",
          "type": "uint256"
        },
        {
          "internalType": "uint256",
          "name": "expireblock",
          "type": "uint256"
        }
      ],
      "name": "createBid",
      "outputs": [
        {
          "internalType": "bytes32",
          "name": "data",
          "type": "bytes32"
        }
      ],
      "stateMutability": "view",
      "type": "function",
      "constant": true
    },
    {
      "inputs": [
        {
          "internalType": "uint256",
          "name": "auctionid",
          "type": "uint256"
        },
        {
          "internalType": "uint256",
          "name": "price",
          "type": "uint256"
        }
      ],
      "name": "cancelBidsUnderPrice",
      "outputs": [],
      "stateMutability": "nonpayable",
      "type": "function"
    },
    {
      "inputs": [
        {
          "internalType": "bytes32",
          "name": "hash",
          "type": "bytes32"
        },
        {
          "internalType": "bytes",
          "name": "signature",
          "type": "bytes"
        }
      ],
      "name": "recover",
      "outputs": [
        {
          "internalType": "address",
          "name": "",
          "type": "address"
        }
      ],
      "stateMutability": "pure",
      "type": "function",
      "constant": true
    },
    {
      "inputs": [
        {
          "internalType": "bytes32",
          "name": "hash",
          "type": "bytes32"
        }
      ],
      "name": "toEthSignedMessageHash",
      "outputs": [
        {
          "internalType": "bytes32",
          "name": "",
          "type": "bytes32"
        }
      ],
      "stateMutability": "pure",
      "type": "function",
      "constant": true
    }
  ],
  "bytecode": "0x60806040523480156200001157600080fd5b5060405162002184380380620021848339818101604052810190620000379190620000ee565b816000806101000a81548173ffffffffffffffffffffffffffffffffffffffff021916908373ffffffffffffffffffffffffffffffffffffffff16021790555080600160006101000a81548173ffffffffffffffffffffffffffffffffffffffff021916908373ffffffffffffffffffffffffffffffffffffffff1602179055505050620001bf565b600081519050620000d1816200018b565b92915050565b600081519050620000e881620001a5565b92915050565b600080604083850312156200010257600080fd5b60006200011285828601620000c0565b92505060206200012585828601620000d7565b9150509250929050565b60006200013c826200016b565b9050919050565b600062000150826200012f565b9050919050565b600062000164826200012f565b9050919050565b600073ffffffffffffffffffffffffffffffffffffffff82169050919050565b620001968162000143565b8114620001a257600080fd5b50565b620001b08162000157565b8114620001bc57600080fd5b50565b611fb580620001cf6000396000f3fe608060405234801561001057600080fd5b50600436106100885760003560e01c806349fcea561161005b57806349fcea5614610127578063918a15cf14610143578063da357efd14610173578063fc0c546a146101a357610088565b806301ff95bc1461008d57806316d7b3eb146100bd57806319045a25146100d95780632b20e39714610109575b600080fd5b6100a760048036038101906100a2919061116c565b6101c1565b6040516100b491906115ab565b60405180910390f35b6100d760048036038101906100d29190611130565b610207565b005b6100f360048036038101906100ee9190610ffe565b6102af565b604051610100919061153e565b60405180910390f35b6101116102cc565b60405161011e9190611626565b60405180910390f35b610141600480360381019061013c9190611052565b6102f2565b005b61015d60048036038101906101589190610fd5565b610867565b60405161016a91906115ab565b60405180910390f35b61018d60048036038101906101889190610f70565b610879565b60405161019a9190611590565b60405180910390f35b6101ab6108a8565b6040516101b8919061160b565b60405180910390f35b60008730468989898989896040516020016101e49998979695949392919061183e565b604051602081830303815290604052805190602001209050979650505050505050565b80600360003373ffffffffffffffffffffffffffffffffffffffff1673ffffffffffffffffffffffffffffffffffffffff168152602001908152602001600020600084815260200190815260200160002081905550813373ffffffffffffffffffffffffffffffffffffffff167f50f87f46257f76778258778496e8790189350718ebd0d5cb5f0735d3bad2380d836040516102a39190611823565b60405180910390a35050565b60006102c482846108cc90919063ffffffff16565b905092915050565b600160009054906101000a900473ffffffffffffffffffffffffffffffffffffffff1681565b43821115610335576040517f08c379a000000000000000000000000000000000000000000000000000000000815260040161032c90611683565b60405180910390fd5b438111610377576040517f08c379a000000000000000000000000000000000000000000000000000000000815260040161036e90611763565b60405180910390fd5b858311156103ba576040517f08c379a00000000000000000000000000000000000000000000000000000000081526004016103b190611743565b60405180910390fd5b3373ffffffffffffffffffffffffffffffffffffffff168773ffffffffffffffffffffffffffffffffffffffff161415610429576040517f08c379a0000000000000000000000000000000000000000000000000000000008152600401610420906117a3565b60405180910390fd5b600061043a898888888888886101c1565b905061044e61044882610867565b8b6102af565b73ffffffffffffffffffffffffffffffffffffffff168873ffffffffffffffffffffffffffffffffffffffff16146104bb576040517f08c379a00000000000000000000000000000000000000000000000000000000081526004016104b290611803565b60405180910390fd5b600260008973ffffffffffffffffffffffffffffffffffffffff1673ffffffffffffffffffffffffffffffffffffffff16815260200190815260200160002060008a815260200190815260200160002060009054906101000a900460ff1615610559576040517f08c379a0000000000000000000000000000000000000000000000000000000008152600401610550906116c3565b60405180910390fd5b600360008973ffffffffffffffffffffffffffffffffffffffff1673ffffffffffffffffffffffffffffffffffffffff16815260200190815260200160002060008a81526020019081526020016000205487116105eb576040517f08c379a00000000000000000000000000000000000000000000000000000000081526004016105e2906116e3565b60405180910390fd5b60008690506001600260008b73ffffffffffffffffffffffffffffffffffffffff1673ffffffffffffffffffffffffffffffffffffffff16815260200190815260200160002060008c815260200190815260200160002060006101000a81548160ff02191690831515021790555061069c60008054906101000a900473ffffffffffffffffffffffffffffffffffffffff168a33600a8c61068c91906119b1565b8c61069791906119e2565b61097b565b61077e60008054906101000a900473ffffffffffffffffffffffffffffffffffffffff168a600160009054906101000a900473ffffffffffffffffffffffffffffffffffffffff1673ffffffffffffffffffffffffffffffffffffffff16639e942ace8a6040518263ffffffff1660e01b815260040161071c9190611823565b60206040518083038186803b15801561073457600080fd5b505afa158015610748573d6000803e3d6000fd5b505050506040513d601f19601f8201168201806040525081019061076c9190610f47565b600a8c61077991906119b1565b61097b565b8073ffffffffffffffffffffffffffffffffffffffff166342842e0e338b896040518463ffffffff1660e01b81526004016107bb93929190611559565b600060405180830381600087803b1580156107d557600080fd5b505af11580156107e9573d6000803e3d6000fd5b505050503373ffffffffffffffffffffffffffffffffffffffff168973ffffffffffffffffffffffffffffffffffffffff167f892a66c9301632478fed9b6fb1ff029dc070dd25bf2a3f8fd1688a4399bc46bc8c8b858b896040516108529594939291906118cb565b60405180910390a35050505050505050505050565b600061087282610a04565b9050919050565b60026020528160005260406000206020528060005260406000206000915091509054906101000a900460ff1681565b60008054906101000a900473ffffffffffffffffffffffffffffffffffffffff1681565b600060418251141561090b5760008060006020850151925060408501519150606085015160001a905061090186828585610a34565b9350505050610975565b60408251141561093a576000806020840151915060408401519050610931858383610bbf565b92505050610975565b6040517f08c379a000000000000000000000000000000000000000000000000000000000815260040161096c906116a3565b60405180910390fd5b92915050565b6109fe846323b872dd60e01b85858560405160240161099c93929190611559565b604051602081830303815290604052907bffffffffffffffffffffffffffffffffffffffffffffffffffffffff19166020820180517bffffffffffffffffffffffffffffffffffffffffffffffffffffffff8381831617835250505050610c09565b50505050565b600081604051602001610a179190611518565b604051602081830303815290604052805190602001209050919050565b60007f7fffffffffffffffffffffffffffffff5d576e7357a4501ddfe92f46681b20a08260001c1115610a9c576040517f08c379a0000000000000000000000000000000000000000000000000000000008152600401610a9390611703565b60405180910390fd5b601b8460ff161480610ab15750601c8460ff16145b610af0576040517f08c379a0000000000000000000000000000000000000000000000000000000008152600401610ae790611783565b60405180910390fd5b600060018686868660405160008152602001604052604051610b1594939291906115c6565b6020604051602081039080840390855afa158015610b37573d6000803e3d6000fd5b505050602060405103519050600073ffffffffffffffffffffffffffffffffffffffff168173ffffffffffffffffffffffffffffffffffffffff161415610bb3576040517f08c379a0000000000000000000000000000000000000000000000000000000008152600401610baa90611663565b60405180910390fd5b80915050949350505050565b60008060007f7fffffffffffffffffffffffffffffffffffffffffffffffffffffffffffffff84169150601b8460ff1c019050610bfe86828785610a34565b925050509392505050565b6000610c6b826040518060400160405280602081526020017f5361666545524332303a206c6f772d6c6576656c2063616c6c206661696c65648152508573ffffffffffffffffffffffffffffffffffffffff16610cd09092919063ffffffff16565b9050600081511115610ccb5780806020019051810190610c8b9190610fac565b610cca576040517f08c379a0000000000000000000000000000000000000000000000000000000008152600401610cc1906117e3565b60405180910390fd5b5b505050565b6060610cdf8484600085610ce8565b90509392505050565b606082471015610d2d576040517f08c379a0000000000000000000000000000000000000000000000000000000008152600401610d2490611723565b60405180910390fd5b610d3685610dfc565b610d75576040517f08c379a0000000000000000000000000000000000000000000000000000000008152600401610d6c906117c3565b60405180910390fd5b6000808673ffffffffffffffffffffffffffffffffffffffff168587604051610d9e9190611501565b60006040518083038185875af1925050503d8060008114610ddb576040519150601f19603f3d011682016040523d82523d6000602084013e610de0565b606091505b5091509150610df0828286610e0f565b92505050949350505050565b600080823b905060008111915050919050565b60608315610e1f57829050610e6f565b600083511115610e325782518084602001fd5b816040517f08c379a0000000000000000000000000000000000000000000000000000000008152600401610e669190611641565b60405180910390fd5b9392505050565b6000610e89610e8484611943565b61191e565b905082815260208101848484011115610ea157600080fd5b610eac848285611abd565b509392505050565b600081359050610ec381611f23565b92915050565b600081519050610ed881611f23565b92915050565b600081519050610eed81611f3a565b92915050565b600081359050610f0281611f51565b92915050565b600082601f830112610f1957600080fd5b8135610f29848260208601610e76565b91505092915050565b600081359050610f4181611f68565b92915050565b600060208284031215610f5957600080fd5b6000610f6784828501610ec9565b91505092915050565b60008060408385031215610f8357600080fd5b6000610f9185828601610eb4565b9250506020610fa285828601610f32565b9150509250929050565b600060208284031215610fbe57600080fd5b6000610fcc84828501610ede565b91505092915050565b600060208284031215610fe757600080fd5b6000610ff584828501610ef3565b91505092915050565b6000806040838503121561101157600080fd5b600061101f85828601610ef3565b925050602083013567ffffffffffffffff81111561103c57600080fd5b61104885828601610f08565b9150509250929050565b60008060008060008060008060006101208a8c03121561107157600080fd5b60008a013567ffffffffffffffff81111561108b57600080fd5b6110978c828d01610f08565b99505060206110a88c828d01610f32565b98505060406110b98c828d01610eb4565b97505060606110ca8c828d01610f32565b96505060806110db8c828d01610eb4565b95505060a06110ec8c828d01610f32565b94505060c06110fd8c828d01610f32565b93505060e061110e8c828d01610f32565b9250506101006111208c828d01610f32565b9150509295985092959850929598565b6000806040838503121561114357600080fd5b600061115185828601610f32565b925050602061116285828601610f32565b9150509250929050565b600080600080600080600060e0888a03121561118757600080fd5b60006111958a828b01610f32565b97505060206111a68a828b01610f32565b96505060406111b78a828b01610eb4565b95505060606111c88a828b01610f32565b94505060806111d98a828b01610f32565b93505060a06111ea8a828b01610f32565b92505060c06111fb8a828b01610f32565b91505092959891949750929550565b61121381611a16565b82525050565b61122281611a28565b82525050565b61123181611a34565b82525050565b61124861124382611a34565b611b30565b82525050565b600061125982611974565b611263818561198a565b9350611273818560208601611acc565b80840191505092915050565b61128881611a75565b82525050565b61129781611a99565b82525050565b60006112a88261197f565b6112b28185611995565b93506112c2818560208601611acc565b6112cb81611bc7565b840191505092915050565b60006112e3601883611995565b91506112ee82611bd8565b602082019050919050565b6000611306601f83611995565b915061131182611c01565b602082019050919050565b6000611329601f83611995565b915061133482611c2a565b602082019050919050565b600061134c601c836119a6565b915061135782611c53565b601c82019050919050565b600061136f601f83611995565b915061137a82611c7c565b602082019050919050565b6000611392601c83611995565b915061139d82611ca5565b602082019050919050565b60006113b5602283611995565b91506113c082611cce565b604082019050919050565b60006113d8602683611995565b91506113e382611d1d565b604082019050919050565b60006113fb602383611995565b915061140682611d6c565b604082019050919050565b600061141e601983611995565b915061142982611dbb565b602082019050919050565b6000611441602283611995565b915061144c82611de4565b604082019050919050565b6000611464601683611995565b915061146f82611e33565b602082019050919050565b6000611487601d83611995565b915061149282611e5c565b602082019050919050565b60006114aa602a83611995565b91506114b582611e85565b604082019050919050565b60006114cd602483611995565b91506114d882611ed4565b604082019050919050565b6114ec81611a5e565b82525050565b6114fb81611a68565b82525050565b600061150d828461124e565b915081905092915050565b60006115238261133f565b915061152f8284611237565b60208201915081905092915050565b6000602082019050611553600083018461120a565b92915050565b600060608201905061156e600083018661120a565b61157b602083018561120a565b61158860408301846114e3565b949350505050565b60006020820190506115a56000830184611219565b92915050565b60006020820190506115c06000830184611228565b92915050565b60006080820190506115db6000830187611228565b6115e860208301866114f2565b6115f56040830185611228565b6116026060830184611228565b95945050505050565b6000602082019050611620600083018461127f565b92915050565b600060208201905061163b600083018461128e565b92915050565b6000602082019050818103600083015261165b818461129d565b905092915050565b6000602082019050818103600083015261167c816112d6565b9050919050565b6000602082019050818103600083015261169c816112f9565b9050919050565b600060208201905081810360008301526116bc8161131c565b9050919050565b600060208201905081810360008301526116dc81611362565b9050919050565b600060208201905081810360008301526116fc81611385565b9050919050565b6000602082019050818103600083015261171c816113a8565b9050919050565b6000602082019050818103600083015261173c816113cb565b9050919050565b6000602082019050818103600083015261175c816113ee565b9050919050565b6000602082019050818103600083015261177c81611411565b9050919050565b6000602082019050818103600083015261179c81611434565b9050919050565b600060208201905081810360008301526117bc81611457565b9050919050565b600060208201905081810360008301526117dc8161147a565b9050919050565b600060208201905081810360008301526117fc8161149d565b9050919050565b6000602082019050818103600083015261181c816114c0565b9050919050565b600060208201905061183860008301846114e3565b92915050565b600061012082019050611854600083018c6114e3565b611861602083018b61120a565b61186e604083018a6114e3565b61187b60608301896114e3565b611888608083018861120a565b61189560a08301876114e3565b6118a260c08301866114e3565b6118af60e08301856114e3565b6118bd6101008301846114e3565b9a9950505050505050505050565b600060a0820190506118e060008301886114e3565b6118ed60208301876114e3565b6118fa604083018661120a565b61190760608301856114e3565b61191460808301846114e3565b9695505050505050565b6000611928611939565b90506119348282611aff565b919050565b6000604051905090565b600067ffffffffffffffff82111561195e5761195d611b98565b5b61196782611bc7565b9050602081019050919050565b600081519050919050565b600081519050919050565b600081905092915050565b600082825260208201905092915050565b600081905092915050565b60006119bc82611a5e565b91506119c783611a5e565b9250826119d7576119d6611b69565b5b828204905092915050565b60006119ed82611a5e565b91506119f883611a5e565b925082821015611a0b57611a0a611b3a565b5b828203905092915050565b6000611a2182611a3e565b9050919050565b60008115159050919050565b6000819050919050565b600073ffffffffffffffffffffffffffffffffffffffff82169050919050565b6000819050919050565b600060ff82169050919050565b6000611a8082611a87565b9050919050565b6000611a9282611a3e565b9050919050565b6000611aa482611aab565b9050919050565b6000611ab682611a3e565b9050919050565b82818337600083830152505050565b60005b83811015611aea578082015181840152602081019050611acf565b83811115611af9576000848401525b50505050565b611b0882611bc7565b810181811067ffffffffffffffff82111715611b2757611b26611b98565b5b80604052505050565b6000819050919050565b7f4e487b7100000000000000000000000000000000000000000000000000000000600052601160045260246000fd5b7f4e487b7100000000000000000000000000000000000000000000000000000000600052601260045260246000fd5b7f4e487b7100000000000000000000000000000000000000000000000000000000600052604160045260246000fd5b6000601f19601f8301169050919050565b7f45434453413a20696e76616c6964207369676e61747572650000000000000000600082015250565b7f7a41756374696f6e3a2061756374696f6e206861736e74207374617274656400600082015250565b7f45434453413a20696e76616c6964207369676e6174757265206c656e67746800600082015250565b7f19457468657265756d205369676e6564204d6573736167653a0a333200000000600082015250565b7f7a41756374696f6e3a206461746120616c726561647920636f6e73756d656400600082015250565b7f7a41756374696f6e3a2062656c6f772063616e63656c20707269636500000000600082015250565b7f45434453413a20696e76616c6964207369676e6174757265202773272076616c60008201527f7565000000000000000000000000000000000000000000000000000000000000602082015250565b7f416464726573733a20696e73756666696369656e742062616c616e636520666f60008201527f722063616c6c0000000000000000000000000000000000000000000000000000602082015250565b7f7a41756374696f6e3a2063616e7420616363657074206269642062656c6f772060008201527f6d696e0000000000000000000000000000000000000000000000000000000000602082015250565b7f7a41756374696f6e3a2061756374696f6e206578706972656400000000000000600082015250565b7f45434453413a20696e76616c6964207369676e6174757265202776272076616c60008201527f7565000000000000000000000000000000000000000000000000000000000000602082015250565b7f7a41756374696f6e3a2073616c6520746f2073656c6600000000000000000000600082015250565b7f416464726573733a2063616c6c20746f206e6f6e2d636f6e7472616374000000600082015250565b7f5361666545524332303a204552433230206f7065726174696f6e20646964206e60008201527f6f74207375636365656400000000000000000000000000000000000000000000602082015250565b7f7a41756374696f6e3a207265636f766572656420696e636f727265637420626960008201527f6464657200000000000000000000000000000000000000000000000000000000602082015250565b611f2c81611a16565b8114611f3757600080fd5b50565b611f4381611a28565b8114611f4e57600080fd5b50565b611f5a81611a34565b8114611f6557600080fd5b50565b611f7181611a5e565b8114611f7c57600080fd5b5056fea2646970667358221220c7515ccee3317dc0b77283aac553be2f95068ddcd6134307ff4252c4e817576a64736f6c63430008040033",
  "immutableReferences": {},
  "source": "pragma solidity ^0.8.4;\r\n\r\nimport \"@openzeppelin/contracts/utils/cryptography/ECDSA.sol\";\r\nimport \"@openzeppelin/contracts/token/ERC20/utils/SafeERC20.sol\";\r\nimport \"@openzeppelin/contracts/token/ERC721/IERC721.sol\";\r\nimport \"./IRegistrar.sol\";\r\n\r\ncontract ZAuction {\r\n    using ECDSA for bytes32;\r\n\r\n    IERC20 public token;\r\n    IRegistrar public registrar;\r\n    mapping(address => mapping(uint256 => bool)) public consumed;\r\n    mapping(address => mapping(uint256 => uint256)) cancelprice;\r\n\r\n    event Cancelled(\r\n        address indexed bidder,\r\n        uint256 indexed auctionid,\r\n        uint256 price\r\n    );\r\n    event BidAccepted(\r\n        uint256 auctionid,\r\n        address indexed bidder,\r\n        address indexed seller,\r\n        uint256 amount,\r\n        address nftaddress,\r\n        uint256 tokenid,\r\n        uint256 expireblock\r\n    );\r\n\r\n    constructor(IERC20 tokenAddress, IRegistrar registrarAddress) {\r\n        token = tokenAddress;\r\n        registrar = registrarAddress;\r\n    }\r\n\r\n    /// recovers bidder's signature based on seller's proposed data and, if bid data hash matches the message hash, transfers nft and payment\r\n    /// @param signature type encoded message signed by the bidder\r\n    /// @param auctionid unique per address auction identifier chosen by seller\r\n    /// @param bidder address of who the seller says the bidder is, for confirmation of the recovered bidder\r\n    /// @param bid token amount bid\r\n    /// @param nftaddress contract address of the nft we are transferring\r\n    /// @param tokenid token id we are transferring\r\n    /// @param minbid minimum bid allowed\r\n    /// @param startblock block number at which acceptBid starts working\r\n    /// @param expireblock block number at which acceptBid stops working\r\n    function acceptBid(\r\n        bytes memory signature,\r\n        uint256 auctionid,\r\n        address bidder,\r\n        uint256 bid,\r\n        address nftaddress,\r\n        uint256 tokenid,\r\n        uint256 minbid,\r\n        uint256 startblock,\r\n        uint256 expireblock\r\n    ) external {\r\n        require(startblock <= block.number, \"zAuction: auction hasnt started\");\r\n        require(expireblock > block.number, \"zAuction: auction expired\");\r\n        require(minbid <= bid, \"zAuction: cant accept bid below min\");\r\n        require(bidder != msg.sender, \"zAuction: sale to self\");\r\n        //require(registrar.isDomainMetadataLocked(tokenid), \"zAuction: ZNS domain metadata must be locked\");\r\n\r\n        bytes32 data = createBid(\r\n            auctionid,\r\n            bid,\r\n            nftaddress,\r\n            tokenid,\r\n            minbid,\r\n            startblock,\r\n            expireblock\r\n        );\r\n        require(\r\n            bidder == recover(toEthSignedMessageHash(data), signature),\r\n            \"zAuction: recovered incorrect bidder\"\r\n        );\r\n        require(\r\n            !consumed[bidder][auctionid],\r\n            \"zAuction: data already consumed\"\r\n        );\r\n        require(\r\n            bid > cancelprice[bidder][auctionid],\r\n            \"zAuction: below cancel price\"\r\n        );\r\n\r\n        IERC721 nftcontract = IERC721(nftaddress);\r\n        consumed[bidder][auctionid] = true;\r\n        SafeERC20.safeTransferFrom(token, bidder, msg.sender, bid - (bid / 10));\r\n        SafeERC20.safeTransferFrom(\r\n            token,\r\n            bidder,\r\n            registrar.minterOf(tokenid),\r\n            bid / 10\r\n        );\r\n        nftcontract.safeTransferFrom(msg.sender, bidder, tokenid);\r\n        emit BidAccepted(\r\n            auctionid,\r\n            bidder,\r\n            msg.sender,\r\n            bid,\r\n            address(nftcontract),\r\n            tokenid,\r\n            expireblock\r\n        );\r\n    }\r\n\r\n    function createBid(\r\n        uint256 auctionid,\r\n        uint256 bid,\r\n        address nftaddress,\r\n        uint256 tokenid,\r\n        uint256 minbid,\r\n        uint256 startblock,\r\n        uint256 expireblock\r\n    ) public view returns (bytes32 data) {\r\n        data = keccak256(\r\n            abi.encode(\r\n                auctionid,\r\n                address(this),\r\n                block.chainid,\r\n                bid,\r\n                nftaddress,\r\n                tokenid,\r\n                minbid,\r\n                startblock,\r\n                expireblock\r\n            )\r\n        );\r\n    }\r\n\r\n    /// invalidates all sender's bids at and under given price\r\n    /// @param auctionid unique per address auction identifier chosen by seller\r\n    /// @param price token amount to cancel at and under\r\n    function cancelBidsUnderPrice(uint256 auctionid, uint256 price) external {\r\n        cancelprice[msg.sender][auctionid] = price;\r\n        emit Cancelled(msg.sender, auctionid, price);\r\n    }\r\n\r\n    function recover(bytes32 hash, bytes memory signature)\r\n        public\r\n        pure\r\n        returns (address)\r\n    {\r\n        return hash.recover(signature);\r\n    }\r\n\r\n    function toEthSignedMessageHash(bytes32 hash)\r\n        public\r\n        pure\r\n        returns (bytes32)\r\n    {\r\n        return hash.toEthSignedMessageHash();\r\n    }\r\n}\r\n",
  "sourcePath": "E:/dOrg/zer0/zAuction/contracts/zns/ZAuction.sol",
  "compiler": {
    "name": "solc",
    "version": "0.8.4+commit.c7e474f2.Emscripten.clang"
  },
  "schemaVersion": "3.3.4",
  "updatedAt": "2021-08-17T22:33:49.852Z",
  "networkType": "ethereum",
  "devdoc": {
    "kind": "dev",
    "methods": {
      "acceptBid(bytes,uint256,address,uint256,address,uint256,uint256,uint256,uint256)": {
        "params": {
          "auctionid": "unique per address auction identifier chosen by seller",
          "bid": "token amount bid",
          "bidder": "address of who the seller says the bidder is, for confirmation of the recovered bidder",
          "expireblock": "block number at which acceptBid stops working",
          "minbid": "minimum bid allowed",
          "nftaddress": "contract address of the nft we are transferring",
          "signature": "type encoded message signed by the bidder",
          "startblock": "block number at which acceptBid starts working",
          "tokenid": "token id we are transferring"
        }
      },
      "cancelBidsUnderPrice(uint256,uint256)": {
        "params": {
          "auctionid": "unique per address auction identifier chosen by seller",
          "price": "token amount to cancel at and under"
        }
      }
    },
    "version": 1
  },
  "userdoc": {
    "kind": "user",
    "methods": {
      "acceptBid(bytes,uint256,address,uint256,address,uint256,uint256,uint256,uint256)": {
        "notice": "recovers bidder's signature based on seller's proposed data and, if bid data hash matches the message hash, transfers nft and payment"
      },
      "cancelBidsUnderPrice(uint256,uint256)": {
        "notice": "invalidates all sender's bids at and under given price"
      }
    },
    "version": 1
  }
}